{
  "transactions": [
    {
      "hash": "0x93726e0e4c8a686e05cbdb49d6e879f0cb70e2430d3dac909818d6243d919a7c",
      "transactionType": "CALL",
      "contractName": "LinkToken",
      "contractAddress": "0x779877A7B0D9E8603169DdbD7836e478b4624789",
      "function": "transferAndCall(address,uint256,bytes)",
      "arguments": [
        "0x8103B0A8A00be2DDC778e6e7eaa21791Cd364625",
        "3000000000000000000",
        "0x00000000000000000000000000000000000000000000000000000000000027b8"
      ],
      "transaction": {
        "type": "0x02",
        "from": "0xc699dc72da10141ee105f9c70ade50d3f72e81eb",
        "to": "0x779877a7b0d9e8603169ddbd7836e478b4624789",
        "gas": "0x1b43f",
        "value": "0x0",
        "data": "0x4000aea00000000000000000000000008103b0a8a00be2ddc778e6e7eaa21791cd36462500000000000000000000000000000000000000000000000029a2241af62c00000000000000000000000000000000000000000000000000000000000000000060000000000000000000000000000000000000000000000000000000000000002000000000000000000000000000000000000000000000000000000000000027b8",
        "nonce": "0x19",
        "accessList": []
      },
      "additionalContracts": [],
      "isFixedGasLimit": false
    }
  ],
  "receipts": [],
  "libraries": [],
  "pending": [
    "0x93726e0e4c8a686e05cbdb49d6e879f0cb70e2430d3dac909818d6243d919a7c"
  ],
  "returns": {},
  "timestamp": 1710488957,
  "chain": 11155111,
  "multi": false,
  "commit": "a7b0fc7"
}