{
  "transactions": [
    {
      "hash": "0x93726e0e4c8a686e05cbdb49d6e879f0cb70e2430d3dac909818d6243d919a7c",
      "transactionType": "CALL",
      "contractName": "LinkToken",
      "contractAddress": "0x779877A7B0D9E8603169DdbD7836e478b4624789",
      "function": "transferAndCall(address,uint256,bytes)",
      "arguments": [
        "0x8103B0A8A00be2DDC778e6e7eaa21791Cd364625",
        "3000000000000000000",
        "0x00000000000000000000000000000000000000000000000000000000000027b8"
      ],
      "transaction": {
        "type": "0x02",
        "from": "0xc699dc72da10141ee105f9c70ade50d3f72e81eb",
        "to": "0x779877a7b0d9e8603169ddbd7836e478b4624789",
        "gas": "0x1b43f",
        "value": "0x0",
        "data": "0x4000aea00000000000000000000000008103b0a8a00be2ddc778e6e7eaa21791cd36462500000000000000000000000000000000000000000000000029a2241af62c00000000000000000000000000000000000000000000000000000000000000000060000000000000000000000000000000000000000000000000000000000000002000000000000000000000000000000000000000000000000000000000000027b8",
        "nonce": "0x19",
        "accessList": []
      },
      "additionalContracts": [],
      "isFixedGasLimit": false
    }
  ],
  "receipts": [
    {
      "transactionHash": "0x93726e0e4c8a686e05cbdb49d6e879f0cb70e2430d3dac909818d6243d919a7c",
      "transactionIndex": "0x21",
      "blockHash": "0xef5681212bfe16aa7ca0671d52ec2ff6689248da4dc3014ddcfcb6555e9037e7",
      "blockNumber": "0x53c3bd",
      "from": "0xc699dc72Da10141eE105f9C70aDe50d3F72e81eb",
      "to": "0x779877A7B0D9E8603169DdbD7836e478b4624789",
      "cumulativeGasUsed": "0x3f08c3",
      "gasUsed": "0x12a4a",
      "contractAddress": null,
      "logs": [
        {
          "address": "0x779877A7B0D9E8603169DdbD7836e478b4624789",
          "topics": [
            "0xddf252ad1be2c89b69c2b068fc378daa952ba7f163c4a11628f55a4df523b3ef",
            "0x000000000000000000000000c699dc72da10141ee105f9c70ade50d3f72e81eb",
            "0x0000000000000000000000008103b0a8a00be2ddc778e6e7eaa21791cd364625"
          ],
          "data": "0x00000000000000000000000000000000000000000000000029a2241af62c0000",
          "blockHash": "0xef5681212bfe16aa7ca0671d52ec2ff6689248da4dc3014ddcfcb6555e9037e7",
          "blockNumber": "0x53c3bd",
          "transactionHash": "0x93726e0e4c8a686e05cbdb49d6e879f0cb70e2430d3dac909818d6243d919a7c",
          "transactionIndex": "0x21",
          "logIndex": "0x2c",
          "removed": false
        },
        {
          "address": "0x779877A7B0D9E8603169DdbD7836e478b4624789",
          "topics": [
            "0xe19260aff97b920c7df27010903aeb9c8d2be5d310a2c67824cf3f15396e4c16",
            "0x000000000000000000000000c699dc72da10141ee105f9c70ade50d3f72e81eb",
            "0x0000000000000000000000008103b0a8a00be2ddc778e6e7eaa21791cd364625"
          ],
          "data": "0x00000000000000000000000000000000000000000000000029a2241af62c00000000000000000000000000000000000000000000000000000000000000000040000000000000000000000000000000000000000000000000000000000000002000000000000000000000000000000000000000000000000000000000000027b8",
          "blockHash": "0xef5681212bfe16aa7ca0671d52ec2ff6689248da4dc3014ddcfcb6555e9037e7",
          "blockNumber": "0x53c3bd",
          "transactionHash": "0x93726e0e4c8a686e05cbdb49d6e879f0cb70e2430d3dac909818d6243d919a7c",
          "transactionIndex": "0x21",
          "logIndex": "0x2d",
          "removed": false
        },
        {
          "address": "0x8103B0A8A00be2DDC778e6e7eaa21791Cd364625",
          "topics": [
            "0xd39ec07f4e209f627a4c427971473820dc129761ba28de8906bd56f57101d4f8",
            "0x00000000000000000000000000000000000000000000000000000000000027b8"
          ],
          "data": "0x000000000000000000000000000000000000000000000000000000000000000000000000000000000000000000000000000000000000000029a2241af62c0000",
          "blockHash": "0xef5681212bfe16aa7ca0671d52ec2ff6689248da4dc3014ddcfcb6555e9037e7",
          "blockNumber": "0x53c3bd",
          "transactionHash": "0x93726e0e4c8a686e05cbdb49d6e879f0cb70e2430d3dac909818d6243d919a7c",
          "transactionIndex": "0x21",
          "logIndex": "0x2e",
          "removed": false
        }
      ],
      "status": "0x1",
      "logsBloom": "0x0000001400000000000000000000000000000000000000020000000002000000008000000000800000000000000000000000000000000000040000000000000000800000000000001000000800000000000000000000000000002000000000000000000000000000000000000000000000000000400000000000001000000000000000000c000020000000000000800010000020000000000000000000000000000000000000000000000000000000000000000000000000000400000000000000000002000000000000000000000000000000000000000100000000000000000000000000000000000020000000000000000000000800000000000000000000",
      "type": "0x2",
      "effectiveGasPrice": "0x2e5c861c70"
    }
  ],
  "libraries": [],
  "pending": [],
  "returns": {},
  "timestamp": 1710488971,
  "chain": 11155111,
  "multi": false,
  "commit": "a7b0fc7"
}